:020000020000FC
:100000000C940200F89401E20EBF0FEF0DBF10E058
:1000100024E6D2E0C0E030E03230E0F444E63030B4
:1000200019F04D32B8F402C04330A0F05FEFF0E0B9
:10003000E4E635914491303011F4403061F0509550
:100040005030B9F339932A95203099F7103011F0D8
:1000500010E0EFCFFFCF30E044E6131739F7241755
:1000600029F7F8CF000102030405060708090A0B67
:100070000C0D0E1F101112131415161718191A1B38
:100080001C1D1F1F202122232425262728292A2B37
:100090002C2D2E2F303132333435363738393A3B28
:1000A0003C3D3E3F404142434445464748494A4B18
:1000B0004C4D4E4F505152535455565758595A5B08
:1000C0005C5D5E5F606162636465666768696A6BF8
:1000D0006C6D6E6F707172737475767778797A7BE8
:1000E0007C7D7E7F808182838485868788898A8BD8
:1000F0008C8D8E8F909192939495969798999A9BC8
:100100009C9D9E9FA0A1A2A3A4A5A6A7A8A9AAABB7
:10011000ACADAEAFB0B1B2B3B4B5B6B7B8B9BABBA7
:10012000BCBDBEBFC0C1C2C3C4C5C6C7C8C9CACB97
:10013000CCCDCECFE0E1E2E3E4E5E6E7E8E9EAEBC7
:10014000ECEDEEEFFFFEFDFCFBFAF9F8F7F6F5F447
:06015000F3F2F1F00000E3
:00000001FF
